:020000040000FA
:020000000628D0
:080008000B18C22885018F01CD
:1000100002308F0083168501F03086008730810022
:10002000831285018601682202305C2202305C2244
:1000300008305C228A2294228022E421E421E421F7
:10004000F32107222F22FD21E42125221B22112248
:10005000E921FD21EE216822802206118611E4218A
:10006000E421E421E4213422F821FD2102220722A7
:100070000C22112216225722E4211B2220222522A3
:10008000162207222A221122FD21E421E421E42163
:10009000F32107222F22FD21810126308E008B15AE
:1000A0008B1751288022852206308F001414951456
:1000B00096149714981419159A149B149C149D1453
:1000C0009E151F14A01421142214A314A414A51403
:1000D000261427140A30A8000B30A80203190615AD
:1000E000031D86159922E421E421E4212522E4213F
:1000F000432257229E22E421E421E4214D2248227A
:10010000522208305C2205305C221930A8008A2275
:100110004C298022852204308F00141595149614E2
:100120009714981499149A149B149C149D149E145B
:100130009F14A014A114A214A314A414A514A6140B
:10014000A715061586119922E421E421E421252230
:10015000E421432257229E22E421E421E4214D227E
:100160004822522208305C2201305C22003091008B
:100170009300153092002F288022852205308F00B1
:1001800051282F287A22061ECC28861ECF28061F2B
:10019000E028861FE028E0280F1DE9281A290F1DF6
:1001A000D4288F1C33294C290B100F1CD9280F1869
:1001B000DD288F1CBC288F1852288F1C8928E02826
:1001C0000B10090068228E0BE82831308E00810167
:1001D00009000F1CED280F18F1288F1CF4288F1828
:1001E00000298F1C0D29E0280C305C220B305C228A
:1001F000E42108305C2204305C2234228F14E02891
:1002000008305C2204305C22E4210C305C22003097
:100210005C2234220F148F10E0280C305C22003056
:100220005C22E4210C305C220B305C2234220F1063
:100230008F10E0280F1C1D293329911D2229111A26
:100240004C2929293E22111E920A111A9203910A61
:10025000E0280C305C2208305C228F2210309100A4
:1002600026309200E0280F1C362947294721930A9F
:100270001319131C3C294C29911D4129111A4C2991
:100280002929111E920A111A9203910AE0281214C8
:100290009200043039220800CC2162220130AB00E8
:1002A0001D30280203196229273028020319622908
:1002B00094220130280784008019A329001A62299A
:1002C0008018A3290230AB001430280203198229B8
:1002D0001E302802031982298F220130280284004F
:1002E0008019A329001A82298018A329B921342250
:1002F00062220130A8022808840000168100A907A4
:100300002B1C4C290430AB001E30280203198B290A
:1003100003188B29A12914302802031982291E30C1
:10032000280203198229B921342262220130A8024D
:1003300028088400001A82292808840000168100F9
:10034000A9070830AB00B9212B18C021AB18C32175
:100350002B19C621AB19C921342262222808840036
:1003600000168100A9072B1C4C29802206308F0023
:100370002F2828088400001EA722001A3422080013
:100380000130A80708000130A80208000A30A802BE
:1003900008000A30A807080028081E3C0319DC29B9
:1003A000031CDC29031DD42914302802BB000830AB
:1003B0005C223B085C22080028080A3EBB000C3087
:1003C0005C223B085C22080012305C2210305C2268
:1003D000080015305C2216305C22080015305C22C3
:1003E00012305C22080014305C221D305C220800B0
:1003F00014305C2214305C22080014305C2215306A
:100400005C22080014305C2216305C220800143094
:100410005C2211305C22080015305C2215305C2211
:10042000080014305C221C305C22080015305C226D
:1004300014305C22080014305C221F305C2208005B
:1004400014305C2212305C22080015305C2213301C
:100450005C22080014305C2213305C220800153046
:100460005C221A305C22080012305C221A305C22B6
:1004700008001F305C221F305C22080015305C220F
:100480001F305C22080014305C2210305C2208000F
:1004900012305C221C305C22080013305C221030C9
:1004A0005C22080013305C2215305C2208000C30FE
:1004B0005C2200305C220800850086140000861053
:1004C000712208001430BB006822BB0B642A0800AC
:1004D00000308C0033308D008C0F6C2A8D0B6C2A11
:1004E000080000308C0005308D008C0F752A8D0BB4
:1004F000752A0800F93090000000900B7C2A080053
:1005000000305C2201305C22080000305C220F3099
:100510005C22080000305C220C305C2208000030B5
:100520005C2204305C22080000305C2206305C2231
:100530000800143084000A309100A22A1E30840082
:100540000A309100A722840A910BA22A0800001801
:10055000392280183E22001925228019FD21080029
:00000001FF
