:020000040000FA
:020000000628D0
:080008000B18892885018F0106
:1000100002308F0083168501F03086008730810022
:10002000831285018601582102305221023052216B
:1000300008305221003052210C3052210030522120
:10004000063052217021DA20DA20DA20E920FD2062
:100050002521F320DA201B2111210721DF20F320A5
:10006000E4205821702106158615DA20DA20DA20DE
:10007000DA202A21EE20F320F820FD20022107219A
:100080000C214D21DA20112116211B210C21FD20EC
:1000900020210721F320DA20DA20DA20E920FD20D0
:1000A0002521F320810126308E008B158B175728D0
:1000B0007021752114149514961497149814191519
:1000C0009A149B149C149D149E151F14A0142114A3
:1000D0002214A314A414A51426142714861506119B
:1000E000143084000A3091007A21DA20DA20DA20F4
:1000F0001B21DA2039218A21DA20DA20DA20432173
:100100003E21482188203528702135287021352846
:1001100070216A21061E9328861E9428061FA02897
:10012000861FA028A028A9280B100F1C99280F189B
:100130009D288F1C86288F1858288F1C8428A0285B
:100140000B10090058218E0BA82831308E00810138
:1001500009000F1CAD280F18B1288F1CB4288F1868
:10016000C0288F1CCD28A0280C3052210B305221E2
:10017000DA2008305221043052212A218F14A0287D
:100180000830522104305221DA200C305221003044
:1001900052212A210F148F10A0280C305221003038
:1001A0005221DA200C3052210B3052212A210F101B
:1001B0008F10A02812305221103052210800153023
:1001C000522116305221080015305221123052218E
:1001D0000800143052211D305221080014305221E1
:1001E00014305221080014305221153052210800D9
:1001F000143052211630522108001430522111308F
:1002000052210800153052211530522108001430B7
:1002100052211C3052210800153052211430522135
:100220000800143052211F3052210800143052218E
:10023000123052210800153052211330522108008B
:1002400014305221133052210800153052211A3037
:1002500052210800123052211A30522108001F305A
:1002600052211F3052210800153052211F305221D7
:10027000080014305221103052210800123052214F
:100280001C30522108001330522110305221080036
:10029000133052211530522108000C305221003009
:1002A0005221080085008614000086106121080094
:1002B00000308C0033308D008C0F5C298D0B5C2955
:1002C000080000308C0005308D008C0F65298D0BE7
:1002D00065290800F93090000000900B6C29080097
:1002E00000305221013052210800003052210F30DD
:1002F00052210800143084000A30910000182F2188
:100300008018342100191B218019F320840A910BD5
:100310007E2908001E3084000A3091004D2100180B
:100320002F218018342100191B218019F320840A01
:06033000910B8F2908006B
:00000001FF
