:020000040000FA
:020000000628D0
:080008000B18842885018F010B
:1000100002308F0083168501F03086008730810022
:10002000831285018601532102304D2102304D217A
:1000300008304D2100304D210C304D2100304D2134
:1000400006304D216B21D520D520D520E420F82085
:100050002021EE20D52016210C210221DA20EE20CD
:10006000DF2053216B2106158615D520D520D520FC
:10007000D5202521E920EE20F320F820FD200221C3
:1000800007214821D5200C21112116210721F82014
:100090001B210221EE20D520D520D520E420F820F8
:1000A0002021EE20810126308E008B158B175728DA
:1000B0006B21702114149514961497149814191523
:1000C0009A149B149C149D149E151F14A0142114A3
:1000D0002214A314A414A51426142714861506119B
:1000E000143084000A3091007521D520D520D52008
:1000F0001621D52034218521D520D520D5203E219B
:100100003921432157286B216521061E8E28861E22
:100110008F28061F9B28861F9B289B28A4280B102E
:100120000F1C94280F1898288F1C84288F18582883
:100130008F1C83289B280B10090053218E0BA328AA
:1001400031308E00810109000F1CA8280F18AC283F
:100150008F1CAF288F18BB288F1CC8289B280C30F9
:100160004D210B304D21D52008304D2104304D213B
:1001700025218F149B2808304D2104304D21D52096
:100180000C304D2100304D2125210F148F109B285C
:100190000C304D2100304D21D5200C304D210B303D
:1001A0004D2125210F108F109B2812304D2110302A
:1001B0004D21080015304D2116304D210800153015
:1001C0004D2112304D21080014304D211D304D219C
:1001D000080014304D2114304D21080014304D21F9
:1001E00015304D21080014304D2116304D210800E6
:1001F00014304D2111304D21080015304D2115309E
:100200004D21080014304D211C304D2108001530BF
:100210004D2114304D21080014304D211F304D2147
:10022000080014304D2112304D21080015304D21A9
:1002300013304D21080014304D2113304D2108009A
:1002400015304D211A304D21080012304D211A3041
:100250004D2108001F304D211F304D210800153061
:100260004D211F304D21080014304D2110304D21FB
:10027000080012304D211C304D21080013304D2153
:1002800010304D21080013304D2115304D2108004C
:100290000C304D2100304D210800850086140000EF
:1002A00086105C21080000308C0033308D008C0FEC
:1002B00057298D0B5729080000308C0005308D0020
:1002C0008C0F60298D0B60290800F9309000000028
:1002D000900B6729080000304D2101304D210800A6
:1002E00000304D210F304D210800143084000A30B9
:1002F000910000182A2180182F2100191621801939
:10030000EE20840A910B792908001E3084000A30FF
:100310009100482100182A2180182F210019162148
:0C0320008019EE20840A910B8A29080045
:00000001FF
