:020000040000FA
:020000000628D0
:080008000B18BD2885018F01D2
:1000100002308F0083168501F03086008730810022
:10002000831285018601C6210230C0210230C02121
:100030000830C0210030C0210C30C021ED21DE216C
:1000400048214821482157216B21932161214821D2
:1000500089217F2175214D2161215221C621DE2177
:1000600006158615482148214821482198215C2100
:10007000612166216B21702175217A21BB214821E4
:100080007F21842189217A216B218E217521612193
:1000900048214821482157216B2193216121810169
:1000A00026308E008B158B175428DE21E321063075
:1000B0008F001414951496149714981419159A1403
:1000C0009B149C149D149E151F14A014211422141B
:1000D000A314A414A5142614271486150611F221BE
:1000E00048214821482189214821A721BB21F72106
:1000F000482148214821B121AC21B6210830C02136
:100100000530C02147213228DE21E32104308F0051
:100110001415951496149714981499149A149B1402
:100120009C149D149E149F14A014A114A214A31433
:10013000A414A514A614A71506158611F2214821AA
:100140004821482189214821A721BB21F7214821A5
:1001500048214821B121AC21B6210830C02101300D
:10016000C021003091009300153092003228DE212A
:10017000E32105308F0054283228D821061EC728D5
:10018000861ECA28061FDB28861FDB28DB280F1DDA
:10019000E42815290F1DCF288F1C2E2947290B1065
:1001A0000F1CD4280F18D8288F1CB7288F18552853
:1001B0008F1C8428DB280B100900C6218E0BE32836
:1001C00031308E00810109000F1CE8280F18EC283F
:1001D0008F1CEF288F18FB288F1C0829DB280C3078
:1001E000C0210B30C02148210830C0210430C0217B
:1001F00098218F14DB280830C0210430C021482109
:100200000C30C0210030C02198210F148F10DB2842
:100210000C30C0210030C02148210C30C0210B30EF
:10022000C02198210F108F10DB280F1C18292E29B0
:10023000911D1D29111A47292429A221111E920A54
:10024000111A9203910ADB280C30C0210830C0211A
:10025000E8211030910026309200DB280F1C312954
:1002600042294221930A1319131C37294729911D4A
:100270003C29111A47292429111E920A111A9203A6
:10028000910ADB281214920004309D210800DE211F
:100290001230C0211030C02108001530C0211630A6
:1002A000C02108001530C0211230C02108001430D0
:1002B000C0211D30C02108001430C0211430C021DD
:1002C00008001430C0211530C02108001430C021AE
:1002D0001630C02108001430C0211130C0210800A0
:1002E0001530C0211530C02108001430C0211C3049
:1002F000C02108001530C0211430C021080014307E
:10030000C0211F30C02108001430C0211230C0218C
:1003100008001530C0211330C02108001430C0215E
:100320001330C02108001530C0211A30C021080048
:100330001230C0211A30C02108001F30C0211F30E8
:10034000C02108001530C0211F30C0210800143022
:10035000C0211030C02108001230C0211C30C02143
:1003600008001330C0211030C02108001330C02114
:100370001530C02108000C30C0210030C021080019
:100380008500861400008610CF21080000308C0004
:1003900033308D008C0FCA298D0BCA29080000301C
:1003A0008C0005308D008C0FD3298D0BD3290800CC
:1003B000F93090000000900BDA2908000030C021CD
:1003C0000130C02108000030C0210F30C0210800DA
:1003D0000030C0210430C02108000030C0210630A8
:1003E000C0210800143084000A309100FB291E301F
:1003F00084000A30910000189D218018A221001964
:0E040000892180196121840A910BFB290800D3
:00000001FF
