:020000040000FA
:020000000628D0
:080008000B18C32885018F01CC
:1000100002308F0083168501F03086008730810022
:10002000831285018601DF210230D9210230D921D6
:100030000830D92101220B22F721612161216121A0
:1000400070218421AC217A216121A22198218E2165
:1000500066217A216B21DF21F721061186116121AA
:10006000612161216121B12175217A217F218421C2
:1000700089218E219321D421612198219D21A221C2
:1000800093218421A7218E217A216121612161217F
:1000900070218421AC217A21810126308E008B15BC
:1000A0008B175128F721FC2106308F00141495146A
:1000B00096149714981419159A149B149C149D1453
:1000C0009E151F14A01421142214A314A414A51403
:1000D000261427140A30A8000B30A80203190615AD
:1000E000031D86151022612161216121A221612158
:1000F000C021D4211522612161216121CA21C5219C
:10010000CF210830D9210530D9211930A80001228A
:100110004D212F28F721FC2104308F001415951450
:1001200096149714981499149A149B149C149D1463
:100130009E149F14A014A114A214A314A414A51413
:10014000A614A715061586111022612161216121CF
:10015000A2216121C021D4211522612161216121C7
:10016000CA21C521CF210830D9210130D921003041
:1001700091009300153092002F28F721FC210530C3
:100180008F0051282F28F121061ECD28861ED02849
:10019000061FE128861FE128E1280F1DEA281B29F8
:1001A0000F1DD5288F1C34294D290B100F1CDA2860
:1001B0000F18DE288F1CBD288F1852288F1C8A2804
:1001C000E1280B100900DF218E0BE92831308E0069
:1001D000810109000F1CEE280F18F2288F1CF5284A
:1001E0008F1801298F1C0E29E1280C30D9210B30E2
:1001F000D92161210830D9210430D921B1218F14AE
:10020000E1280830D9210430D92161210C30D921CD
:100210000030D921B1210F148F10E1280C30D921E1
:100220000030D92161210C30D9210B30D921B121E5
:100230000F108F10E1280F1C1E293429911D23292E
:10024000111A4D292A29BB21111E920A111A920353
:10025000910AE1280C30D9210830D921062210302A
:10026000910026309200E1280F1C372948294821A7
:10027000930A1319131C3D294D29911D4229111A66
:100280004D292A29111E920A111A9203910AE12876
:10029000121492000430B62108001D302802031900
:1002A00060292730280203196029013028078400BB
:1002B000043000020319602901300002031960298B
:1002C000F7211230D9211030D92108001530D92159
:1002D0001630D92108001530D9211230D921080053
:1002E0001430D9211D30D92108001430D9211430FF
:1002F000D92108001430D9211530D9210800143033
:10030000D9211630D92108001430D9211130D92132
:1003100008001530D9211530D92108001430D92111
:100320001C30D92108001530D9211430D9210800FA
:100330001430D9211F30D92108001430D9211230AE
:10034000D92108001530D9211330D92108001430E3
:10035000D9211330D92108001530D9211A30D921DB
:1003600008001230D9211A30D92108001F30D921B4
:100370001F30D92108001530D9211F30D92108009C
:100380001430D9211030D92108001230D9211C3065
:10039000D92108001330D9211030D9210800133099
:1003A000D9211530D92108000C30D9210030D921AC
:1003B00008008500861400008610E821080000303F
:1003C0008C0033308D008C0FE3298D0BE32908005E
:1003D00000308C0005308D008C0FEC298D0BEC2942
:1003E0000800F93090000000900BF329080000305D
:1003F000D9210130D92108000030D9210F30D9216D
:1004000008000030D9210C30D92108000030D92152
:100410000430D92108000030D9210630D921080044
:10042000143084000A309100192A1E3084000A30EA
:1004300091000018B6218018BB210019A221801953
:0A0440007A21840A910B192A0800A2
:00000001FF
