:020000040000FA
:020000000628D0
:080008000B18BB2885018F01D4
:1000100002308F0083168501F03086008730810022
:10002000831285018601C4210230BE210230BE2127
:100030000830BE210030BE210C30BE21EB21DC2176
:100040004621462146215521692191215F214621E2
:1000500087217D2173214B215F215021C421DC2187
:1000600006158615462146214621462196215A210C
:100070005F21642169216E2173217821B9214621F4
:100080007D2182218721782169218C2173215F21A3
:100090004621462146215521692191215F21810177
:1000A00026308E008B158B175428DC21E121063079
:1000B0008F001414951496149714981419159A1403
:1000C0009B149C149D149E151F14A014211422141B
:1000D000A314A414A5142614271486150611F021C0
:1000E00046214621462187214621A521B921F52116
:1000F000462146214621AF21AA21B4210830BE2144
:100100000530BE210900DC21E12104308F001415E7
:10011000951496149714981499149A149B149C147B
:100120009D149E149F14A014A114A214A314A4142B
:10013000A514A614A71506158611F02146214621FF
:10014000462187214621A521B921F52146214621B5
:100150004621AF21AA21B4210830BE210130BE21A1
:10016000003091009300153092000900DC21E1215C
:1001700005308F005428D621061EC528861EC828A3
:10018000061FD928861FD928D9280F1DE228132930
:100190000F1DCD288F1C2C2945290B100F1CD22890
:1001A0000F18D6288F1CB6288F1855288F1C832827
:1001B000D9280B100900C4218E0BE12831308E00A4
:1001C000810109000F1CE6280F18EA288F1CED2872
:1001D0008F18F9288F1C0629D9280C30BE210B3026
:1001E000BE2146210830BE210430BE2196218F1445
:1001F000D9280830BE210430BE2146210C30BE2152
:100200000030BE2196210F148F10D9280C30BE214A
:100210000030BE2146210C30BE210B30BE2196217C
:100220000F108F10D9280F1C16292C29911D1B295E
:10023000111A45292229A021111E920A111A92038E
:10024000910AD9280C30BE210830BE21E621103099
:10025000910026309200D9280F1C2F2940294021D7
:10026000930A1319131C35294529911D3A29111A8E
:1002700045292229111E920A111A9203910AD9289E
:100280001214920004309B210800DC211230BE21A0
:100290001030BE2108001530BE211630BE210800E6
:1002A0001530BE211230BE2108001430BE211D3091
:1002B000BE2108001430BE211430BE2108001430C5
:1002C000BE211530BE2108001430BE211630BE21DB
:1002D00008001430BE211130BE2108001530BE21A7
:1002E0001530BE2108001430BE211C30BE2108008C
:1002F0001530BE211430BE2108001430BE211F303D
:10030000BE2108001430BE211230BE210800153075
:10031000BE211330BE2108001430BE211330BE218F
:1003200008001530BE211A30BE2108001230BE214F
:100330001A30BE2108001F30BE211F30BE21080028
:100340001530BE211F30BE2108001430BE211030F0
:10035000BE2108001230BE211C30BE21080013301F
:10036000BE211030BE2108001330BE211530BE2141
:1003700008000C30BE210030BE2108008500861424
:1003800000008610CD21080000308C0033308D0035
:100390008C0FC8298D0BC829080000308C0005304F
:1003A0008D008C0FD1298D0BD1290800F9309000D8
:1003B0000000900BD82908000030BE210130BE217A
:1003C00008000030BE210F30BE2108000030BE21E1
:1003D0000430BE2108000030BE210630BE210800D6
:1003E000143084000A309100F9291E3084000A304C
:1003F000910000189B218018A021001987218019E5
:0A0400005F21840A910BF92908001E
:00000001FF
