:020000040000FA
:020000000628D0
:080008000B18C62885018F01C9
:1000100002308F0083168501F03086008730810022
:10002000831285018601F3210230E8210230E821A4
:100030000830E82115221F220B2270217021702127
:100040007F219321BB2189217021B121A7219D21ED
:10005000752189217A21F3210B2206118611702145
:10006000702170217021C021842189218E2193214A
:1000700098219D21A221E3217021A721AC21B1214A
:10008000A2219321B6219D21892170217021702107
:100090007F219321BB218921810126308E008B1580
:1000A0008B1751280B22102206308F001414951440
:1000B00096149714981419159A149B149C149D1453
:1000C0009E151F14A01421142214A314A414A51403
:1000D000261427140A30A8000B30A80203190615AD
:1000E000031D86152422702170217021B1217021F9
:1000F000CF21E3212922702170217021D921D4211F
:10010000DE210830E8210530E8210530AA00AA00E8
:100110001930A800152250212F280B22102204305C
:100120008F001415951496149714981499149A1412
:100130009B149C149D149E149F14A014A114A2142B
:10014000A314A414A514A614A71506158611242219
:10015000702170217021B1217021CF21E32129224A
:10016000702170217021D921D421DE210830E821AD
:100170000130E821003091009300153092002F28C3
:100180000B22102205308F0051282F280522061E31
:10019000D028861ED328061FE428861FE428E428DA
:1001A0000F1DED281E290F1DD8288F1C3729502917
:1001B0000B100F1CDD280F18E1288F1CC0288F188A
:1001C00052288F1C8D28E4280B100900F3218E0B78
:1001D000EC2831308E00810109000F1CF1280F1826
:1001E000F5288F1CF8288F1804298F1C1129E42862
:1001F0000C30E8210B30E82170210830E821043070
:10020000E821C0218F14E4280830E8210430E821D7
:1002100070210C30E8210030E821C0210F148F102C
:10022000E4280C30E8210030E82170210C30E8216E
:100230000B30E821C0210F108F10E4280F1C21295A
:100240003729911D2629111A50292D29CA21111E3D
:10025000920A111A9203910AE4280C30E82108301E
:10026000E8211A221030910026309200E4280F1C59
:100270003A294B294B21930A1319131C4029502961
:10028000911D4529111A50292D29111E920A111A62
:100290009203910AE428121492000430C521080048
:1002A0001D30280203196329273028020319632906
:1002B000013028078400043000020319632901304B
:1002C0000002031963296C21C021EE210130A80727
:1002D000280884000016080028088400322208003C
:1002E0001230E8211030E82108001530E8211630DE
:1002F000E82108001530E8211230E8210800143008
:10030000E8211D30E82108001430E8211430E821EC
:1003100008001430E8211530E82108001430E821E5
:100320001630E82108001430E8211130E8210800D7
:100330001530E8211530E82108001430E8211C3080
:10034000E82108001530E8211430E82108001430B5
:10035000E8211F30E82108001430E8211230E8219C
:1003600008001530E8211330E82108001430E82196
:100370001330E82108001530E8211A30E821080080
:100380001230E8211A30E82108001F30E8211F3020
:10039000E82108001530E8211F30E821080014305A
:1003A000E8211030E82108001230E8211C30E82153
:1003B00008001330E8211030E82108001330E8214C
:1003C0001530E82108000C30E8210030E821080051
:1003D0008500861400008610FC2108000A30F321F5
:1003E000000BEF29080000308C0033308D008C0F9B
:1003F000F7298D0BF729080000308C0005308D009F
:100400008C0F002A8D0B002A0800F93090000000A4
:10041000900B072A08000030E8210130E82108008D
:100420000030E8210F30E82108000030E8210C30CE
:10043000E82108000030E8210430E82108000030FD
:10044000E8210630E8210800143084000A309100C9
:100450002D2A1E3084000A3091003222840A910B2A
:100460002D2A08000018C5218018CA210019B121C1
:060470008019892108003B
:00000001FF
