:020000040000FA
:020000000628D0
:080008000B19D42885018F10AB
:1000100002308F008316850186108730810083129D
:1000200085015E20023058200230582008305820C8
:10003000003058200C30582000305820063058200E
:10004000702075207520752084209820C0208E2077
:100050007520B620AC20A2207A208E207F205E2042
:1000600070207520752075207520C52089208E2070
:10007000932098209D20A220A7200C3058200030EB
:100080005820CA20CF20B120B620A7209820BB201E
:10009000A2208E2075207520752084209820C020F5
:1000A0008E20810126308E000B168B168B17572859
:1000B00085008614000086106720080000308C0040
:1000C00033308D008C0F62288D0B622808000030C1
:1000D0008C0005308D008C0F6B288D0B6B28080071
:1000E00000305820013058200800123058201030BD
:1000F00058200800153058201630582008001530B8
:100100005820123058200800143058201D30582034
:10011000080014305820143058200800143058209B
:100120001530582008001430582016305820080088
:100130001430582011305820080015305820153040
:1001400058200800143058201C3058200800153062
:100150005820143058200800143058201F305820E0
:10016000080014305820123058200800153058204C
:10017000133058200800143058201330582008003D
:10018000153058201A3058200800123058201A30E4
:10019000582008001F3058201F3058200800153004
:1001A00058201F30582008005E208E0BDB2831308D
:1001B0008E008101DD280B1109000F1CE1280F18AA
:1001C000E5288F1CE8288F18F4288F1C0129DB28CC
:1001D0000C3058200B30582075200830582004303F
:1001E0005820C5208F14DB280830582004305820B0
:1001F00075200C30582000305820C5200F148F1067
:10020000DB280C3058200030582075200C30582046
:0C0210000B305820C5200F108F10DB2889
:00000001FF
